:020000040800F2
:1000000000000120C1140008311100083711000858
:100010003D110008431100084911000800000000CC
:100020000000000000000000000000004F11000868
:100030005B11000800000000671100087311000840
:100040000915000809150008091500080915000818
:100050000915000809150008091500080915000808
:1000600009150008091500080915000809150008F8
:1000700009150008091500080915000809150008E8
:1000800009150008091500080915000809150008D8
:1000900009150008091500080915000809150008C8
:1000A00009150008091500080915000809150008B8
:1000B00009150008091500080915000809150008A8
:1000C0000915000809150008091500080915000898
:1000D0000915000809150008091500080915000888
:1000E0000915000809150008091500080915000878
:1000F0000915000809150008091500080915000868
:100100000915000809150008091500080915000857
:1001100009150008091500080915000881110008D3
:100120000915000809150008091500080915000837
:1001300000000000000000000000000000000000BF
:1001400000000000000000000000000000000000AF
:10015000000000000000000000000000000000009F
:10016000000000000000000000000000000000008F
:10017000000000000000000000000000000000007F
:10018000000000000000000000000000000000006F
:10019000000000000000000000000000000000005F
:1001A000000000000000000000000000000000004F
:1001B000000000000000000000000000000000003F
:1001C000000000000000000000000000000000002F
:1001D000000000000000000000000000000000001F
:0401E0005FF8E0F1F3
:1001E80010B5054C237833B9044B13B10448AFF369
:1001F80000800123237010BDEC01002000000000E6
:100208007476000808B5034B1BB103490348AFF3E4
:10021800008008BD00000000F0010020747600088E
:10022800034613F8012B002AFBD1181A013870472E
:1002380081F0004102E000BF83F0004330B54FEA8F
:1002480041044FEA430594EA050F08BF90EA020FFC
:100258001FBF54EA000C55EA020C7FEA645C7FEA8F
:10026800655C00F0E2804FEA5454D4EB5555B8BFB2
:100278006D420CDD2C4480EA020281EA030382EA23
:10028800000083EA010180EA020281EA0303362DB5
:1002980088BF30BD11F0004F4FEA01314FF4801C88
:1002A8004CEA113102D0404261EB410113F0004F9A
:1002B8004FEA03334CEA133302D0524263EB430351
:1002C80094EA050F00F0A780A4F10104D5F1200EEF
:1002D8000DDB02FA0EFC22FA05F2801841F100014A
:1002E80003FA0EF2801843FA05F359410EE0A5F11E
:1002F80020050EF1200E012A03FA0EFC28BF4CF04F
:10030800020C43FA05F3C01851EBE37101F0004504
:1003180007D54FF0000EDCF1000C7EEB00006EEB11
:100328000101B1F5801F1BD3B1F5001F0CD349089B
:100338005FEA30004FEA3C0C04F101044FEA4452F2
:1003480012F5800F80F09A80BCF1004F08BF5FEA79
:10035800500C50F1000041EB045141EA050130BD59
:100368005FEA4C0C404141EB0101013C28BFB1F56B
:10037800801FE9D291F0000F04BF01460020B1FAB6
:1003880081F308BF2033A3F10B03B3F120020CDA89
:100398000C3208DD02F1140CC2F10C0201FA0CF067
:1003A80021FA02F10CE002F11402D8BFC2F1200CCC
:1003B80001FA02F120FA0CFCDCBF41EA0C01904082
:1003C800E41AA2BF01EB0451294330BD6FEA0404CB
:1003D8001F3C1CDA0C340EDC04F11404C4F12002B6
:1003E80020FA04F001FA02F340EA030021FA04F3C8
:1003F80045EA030130BDC4F10C04C4F1200220FA1F
:1004080002F001FA04F340EA0300294630BD21FA5C
:1004180004F0294630BD94F0000F83F4801306BF22
:1004280081F480110134013D4EE77FEA645C18BF16
:100438007FEA655C29D094EA050F08BF90EA020FAD
:1004480005D054EA000C04BF1946104630BD91EAA5
:10045800030F1EBF0021002030BD5FEA545C05D1A8
:100468004000494128BF41F0004130BD14F58004E7
:100478003CBF01F5801130BD01F0004545F0FE415B
:1004880041F470014FF0000030BD7FEA645C1ABF90
:10049800194610467FEA655C1CBF0B46024650EAC7
:1004A800013406BF52EA033591EA030F41F40021F3
:1004B80030BD00BF90F0000F04BF0021704730B579
:1004C8004FF4806404F132044FF000054FF000014E
:1004D80050E700BF90F0000F04BF0021704730B50F
:1004E8004FF4806404F1320410F0004548BF4042E4
:1004F8004FF000013EE700BF42004FEAE2014FEA39
:1005080031014FEA02701FBF12F07F4393F07F4F13
:1005180081F06051704732F07F4208BF704793F016
:100528007F4F04BF41F40021704730B54FF4607429
:1005380001F0004521F000411CE700BF50EA01022C
:1005480008BF704730B54FF000050AE050EA0102D5
:1005580008BF704730B511F0004502D5404261EB45
:1005680041014FF4806404F132045FEA915C3FF486
:10057800D8AE4FF003025FEADC0C18BF03325FEA23
:10058800DC0C18BF033202EBDC02C2F1200300FAD4
:1005980003FC20FA02F001FA03FE40EA0E0021FAF9
:1005A80002F11444BDE600BF70B54FF0FF0C4CF4E7
:1005B800E06C1CEA11541DBF1CEA135594EA0C0F99
:1005C80095EA0C0F00F0DEF82C4481EA030621EAD4
:1005D8004C5123EA4C5350EA013518BF52EA03350F
:1005E80041F4801143F4801338D0A0FB02CE4FF0C1
:1005F8000005E1FB02E506F00042E0FB03E54FF0F1
:100608000006E1FB03569CF0000F18BF4EF0010EE8
:10061800A4F1FF04B6F5007F64F5407404D25FEAE4
:100628004E0E6D4146EB060642EAC62141EA555197
:100638004FEAC52040EA5E504FEACE2EB4F1FD0CD9
:1006480088BFBCF5E06F1ED8BEF1004F08BF5FEA57
:10065800500E50F1000041EB045170BD06F0004609
:1006680046EA010140EA020081EA0301B4EB5C04B6
:10067800C2BFD4EB0C0541EA045170BD41F48011AE
:100688004FF0000E013C00F3AB8014F1360FDEBFD3
:10069800002001F0004170BDC4F10004203C35DAAF
:1006A8000C341BDC04F11404C4F1200500FA05F332
:1006B80020FA04F001FA05F240EA020001F00042D3
:1006C80021F0004110EBD37021FA04F642EB060149
:1006D8005EEA430E08BF20EAD37070BDC4F10C0473
:1006E800C4F1200500FA04F320FA05F001FA04F237
:1006F80040EA020001F0004110EBD37041F1000123
:100708005EEA430E08BF20EAD37070BDC4F120052D
:1007180000FA05F24EEA020E20FA04F301FA05F295
:1007280043EA020321FA04F001F0004121FA04F23D
:1007380020EA020000EBD3705EEA430E08BF20EA0D
:10074800D37070BD94F0000F0FD101F00046400047
:1007580041EB010111F4801F08BF013CF7D041EAC9
:10076800060195F0000F18BF704703F000465200CD
:1007780043EB030313F4801F08BF013DF7D043EA9E
:100788000603704794EA0C0F0CEA135518BF95EA54
:100798000C0F0CD050EA410618BF52EA4306D1D1DB
:1007A80081EA030101F000414FF0000070BD50EAFA
:1007B800410606BF1046194652EA430619D094EA84
:1007C8000C0F02D150EA013613D195EA0C0F05D16E
:1007D80052EA03361CBF104619460AD181EA0301C2
:1007E80001F0004141F0FE4141F470014FF000007A
:1007F80070BD41F0FE4141F4780170BD70B54FF015
:10080800FF0C4CF4E06C1CEA11541DBF1CEA135594
:1008180094EA0C0F95EA0C0F00F0A7F8A4EB050476
:1008280081EA030E52EA03354FEA013100F088806D
:100838004FEA03334FF0805545EA131343EA126336
:100848004FEA022245EA111545EA10654FEA0026EB
:100858000EF000419D4208BF964244F1FD0404F5A4
:10086800407402D25B084FEA3202B61A65EB030500
:100878005B084FEA32024FF480104FF4002CB6EBBD
:10088800020E75EB030E22BFB61A754640EA0C003D
:100898005B084FEA3202B6EB020E75EB030E22BF7D
:1008A800B61A754640EA5C005B084FEA3202B6EBBE
:1008B800020E75EB030E22BFB61A754640EA9C007D
:1008C8005B084FEA3202B6EB020E75EB030E22BF4D
:1008D800B61A754640EADC0055EA060E18D04FEA0B
:1008E800051545EA16754FEA06164FEAC30343EAAB
:1008F80052734FEAC2025FEA1C1CC0D111F4801F78
:100908000BD141EA00014FF000004FF0004CB6E770
:1009180011F4801F04BF01430020B4F1FD0C88BF0F
:10092800BCF5E06F3FF6AFAEB5EB030C04BFB6EB1A
:10093800020C5FEA500C50F1000041EB045170BD0D
:100948000EF0004E4EEA113114EB5C04C2BFD4EB3A
:100958000C0541EA045170BD41F480114FF0000EBE
:10096800013C90E645EA060E8DE60CEA135594EA3A
:100978000C0F08BF95EA0C0F3FF43BAF94EA0C0F3D
:100988000AD150EA01347FF434AF95EA0C0F7FF4B2
:1009980025AF104619462CE795EA0C0F06D152EA06
:1009A80003353FF4FDAE1046194622E750EA4106EA
:1009B80018BF52EA43067FF4C5AE50EA41047FF4FB
:1009C8000DAF52EA43057FF4EBAE12E74FF0FF3C60
:1009D80006E000BF4FF0010C02E000BF4FF0010C31
:1009E8004DF804CD4FEA410C7FEA6C5C4FEA430CAA
:1009F80018BF7FEA6C5C1BD001B050EA410C0CBFF9
:100A080052EA430C91EA030F02BF90EA020F00205A
:100A1800704710F1000F91EA030F58BF994208BFC1
:100A280090422CBFD8176FEAE37040F0010070477E
:100A38004FEA410C7FEA6C5C02D150EA013C07D1D5
:100A48004FEA430C7FEA6C5CD6D152EA033CD3D020
:100A58005DF8040B704700BF8446104662468C461A
:100A68001946634600E000BF01B5FFF7B7FF00284D
:100A780048BF10F1000F01BD4DF808EDFFF7F4FF76
:100A88000CBF012000205DF808FB00BF4DF808ED01
:100A9800FFF7EAFF34BF012000205DF808FB00BF24
:100AA8004DF808EDFFF7E0FF94BF012000205DF846
:100AB80008FB00BF4DF808EDFFF7CEFF94BF0120FB
:100AC80000205DF808FB00BF4DF808EDFFF7C4FFF4
:100AD80034BF012000205DF808FB00BF4FEA410C3D
:100AE8007FEA6C5C02D150EA013C0AD14FEA430C20
:100AF8007FEA6C5C02D152EA033C02D14FF000005D
:100B080070474FF0010070474FEA410212F500129A
:100B180015D211D56FF47873B3EB625212D94FEA3C
:100B2800C12343F0004343EA505311F0004F23FA26
:100B380002F018BF404270474FF00000704750EA7B
:100B4800013005D111F0004008BF6FF00040704738
:100B58004FF00000704700BF4A0011D212F5001292
:100B680011D20DD56FF47873B3EB62520ED44FEAFD
:100B7800C12343F0004343EA505323FA02F070477D
:100B88004FF00000704750EA013002D14FF0FF30BB
:100B980070474FF0000070474FEA4102B2F1E0435E
:100BA80024BFB3F5001CDCF1FE5C0DD901F0004C4C
:100BB8004FEAC0024CEA5070B2F1004F40EB83009C
:100BC80008BF20F00100704711F0804F21D113F1C8
:100BD8003872BCBF01F00040704741F480114FEA01
:100BE8005252C2F11802C2F1200C10FA0CF320FA8A
:100BF80002F018BF40F001004FEAC1234FEAD323A7
:100C080003FA0CFC40EA0C0023FA02F34FEA430310
:100C1800CCE77FEA625307D150EA01331EBF4FF099
:100C2800FE4040F44000704701F0004040F0FE40B4
:100C380040F40000704700BF38B505460C46002256
:100C4800002328462146FFF721FF28B928462146D8
:100C5800BDE8384000F00AB8284604F1004100F029
:100C680005F8404261EB410138BD00BFD0B5002214
:100C78000B4B06460F46FFF797FCFFF76DFF044640
:100C8800FFF718FC0022074BFFF78EFC02460B46C5
:100C980030463946FFF7D0FAFFF75EFF2146D0BD50
:100CA8000000F03D0000F04180B582B000AF7860F0
:100CB800391D4FF6FF730122034801F097FE7B6848
:100CC80018460837BD4680BD6802002080B500AFD1
:100CD80001220349034801F00CFF00BF80BD00BF9B
:100CE800080200206802002080B500AF00F012F86A
:100CF800FFF7ECFF00F01AF800BF80BD80B500AF29
:100D08005A21002000F0B8F84FF47A7000F05CFC2B
:100D180000BF80BD80B400AF034B48221A6000BFFB
:100D2800BD4680BC704700BF0C02002080B500AFF4
:100D3800024801F087FB00BF80BD00BF20020020F1
:100D480080B582B000AF78607B681B68084A934220
:100D58000AD1084B1B78002B04D0074B1B680133C2
:100D6800054A136000F026F800BF0837BD4680BD6D
:100D780000140040180200201402002080B485B03E
:100D880000AF0346FB71FA7913469B0013445B00DE
:100D9800134403F5FA73064A82FB03129210DB1719
:100DA800D31AFB81FB8918461437BD4680BC7047AF
:100DB8006766666680B500AF2B4B1B8801339AB215
:100DC800294B1A80294B1A88274B1B889A4205D32E
:100DD80001220121264800F0BDFE04E00022012185
:100DE800234800F0B7FE214B5A881F4B1B889A42B4
:100DF80005D3012202211E4800F0ACFE04E00022C7
:100E080002211B4800F0A6FE184B9A88164B1B8837
:100E18009A4206D301224FF48041164800F09AFE08
:100E280005E000224FF48041124800F093FE0F4B7A
:100E3800DA880D4B1B889A4206D301224FF40041F1
:100E48000C4800F087FE05E000224FF400410948F5
:100E580000F080FE044B1B88B3F5FA6F02D3024BF7
:100E680000221A8000BF80BD10020020040000206C
:100E7800000C01400014014090B583B000AF034658
:100E88000A46FB711346BB71FB79032B11D8BB795A
:100E9800B42B10D8FB790A49BA79CA54FC79BB79C2
:100EA8001846FFF76BFF03461A46064B23F8142033
:100EB80002E000BF00E000BF0C37BD4690BD00BF98
:100EC800000000200400002080B588B000AF07F1C2
:100ED800100300221A605A609A60DA60454B9B69D9
:100EE800444A43F008039361424B9B6903F00803AB
:100EF800FB60FB683F4B9B693E4A43F0800393616C
:100F08003C4B9B6903F08003BB60BB68394B9B6912
:100F1800384A43F020039361364B9B6903F0200362
:100F28007B607B68334B9B69324A43F004039361CF
:100F3800304B9B6903F004033B603B6800220321AC
:100F48002D4800F007FE01224FF400612B4800F005
:100F580001FE00224FF40041294800F0FBFD032365
:100F68003B6101237B610023BB610223FB6107F125
:100F780010031946204800F059FC4FF400633B6108
:100F880001237B610023BB610323FB6107F110038D
:100F980019461A4800F04AFC4FF480533B6100237D
:100FA8007B610023BB6107F110031946134800F069
:100FB8003DFC4FF480433B61124B7B610023BB61D6
:100FC80007F1100319460E4800F030FC4FF40043B7
:100FD8003B6101237B610023BB610223FB6107F1B5
:100FE80010031946064800F021FC00BF2037BD4613
:100FF80080BD00BF00100240000C0140001C0140F1
:10100800001401400000111080B500AF00F07AFA1A
:1010180000F00BF8FFF758FF00F07EF900F0D6F962
:10102800FFF762FEFFF76AFEFCE780B590B000AFFD
:1010380007F1180328220021184601F0DFFE3B1DA6
:1010480000221A605A609A60DA601A610123BB6153
:101058004FF48033FB6100233B620123BB62022310
:101068007B634FF48033BB634FF4E013FB6307F1FA
:101078001803184600F086FD0346002B01D000F047
:1010880019F80F237B600223BB600023FB604FF439
:1010980080633B6100237B613B1D0221184600F001
:1010A800F3FF0346002B01D000F004F800BF4037DF
:1010B800BD4680BD80B400AF72B600BFFEE7000039
:1010C80080B584B000AF164B9B69154A43F0010305
:1010D8009361134B9B6903F00103BB60BB68104B22
:1010E800DB690F4A43F08053D3610D4BDB6903F092
:1010F80080537B607B68052000F056FB094B5B68DA
:10110800FB60FB6823F0E063FB60FB6843F000735F
:10111800FB60044AFB68536000BF1037BD4680BDC2
:10112800001002400000014080B400AFFEE780B428
:1011380000AFFEE780B400AFFEE780B400AFFEE783
:1011480080B400AFFEE780B400AF00BFBD4680BCEE
:10115800704780B400AF00BFBD4680BC704780B404
:1011680000AF00BFBD4680BC704780B500AF00F03F
:101178000FFA00BF80BD000080B500AF024801F043
:10118800C1F900BF80BD00BF2002002080B400AFBD
:1011980001231846BD4680BC704780B582B000AFB9
:1011A8007860396001F000FE034616221A604FF09D
:1011B800FF3318460837BD4680BD80B582B000AF02
:1011C80078604FF0FF317868FFF7E7FFFEE780B5FA
:1011D80086B000AFF860B9607A6000237B610AE0EE
:1011E800AFF300800146BB685A1CBA60CAB21A70D5
:1011F8007B6901337B617A697B689A42F0DB7B68A3
:1012080018461837BD4680BD80B586B000AFF86077
:10121800B9607A6000237B6109E0BB685A1CBA6038
:101228001B781846FFF740FD7B6901337B617A69BB
:101238007B689A42F1DB7B6818461837BD4680BD4B
:1012480080B483B000AF78604FF0FF3318460C3796
:10125800BD4680BC704780B483B000AF7860396009
:101268003B684FF400525A60002318460C37BD46BD
:1012780080BC704780B483B000AF78600123184603
:101288000C37BD4680BC704780B485B000AFF860AD
:10129800B9607A60002318461437BD4680BC704791
:1012A80080B586B000AF7860144A154BD31A7B61BD
:1012B8007B693B61134B1B68002B02D1114B124A0F
:1012C8001A60104B1A687B6813443A699A4207D22D
:1012D80001F06AFD03460C221A604FF0FF3309E063
:1012E800084B1B68FB60074B1A687B681344054A68
:1012F8001360FB6818461837BD4680BD0000012002
:10130800000400001C020020C802002080B400AFC6
:1013180000BFBD4680BC704780B582B000AF3B4679
:1013280000221A605A60144B144A1A60124B472262
:101338005A60114B00229A600F4B0922DA600E4B5B
:1013480000229A610C4801F02DF80346002B01D0C9
:10135800FFF7B0FE00233B6000237B603B46194645
:10136800054801F075FA0346002B01D0FFF7A2FEED
:1013780000BF0837BD4680BD200200200014004091
:1013880080B584B000AF78607B681B680D4A9342D3
:1013980013D10D4BDB690C4A43F02003D3610A4B90
:1013A800DB6903F02003FB60FB6801220121372081
:1013B80000F005FA372000F01EFA00BF1037BD46CE
:1013C80080BD00BF001400400010024080B500AF8F
:1013D800114B124A1A60104B4FF4E1325A600E4B0F
:1013E80000229A600C4B0022DA600B4B00221A6133
:1013F800094B0C225A61084B00229A61064B0022C5
:10140800DA61054801F0A2FA0346002B01D0FFF784
:1014180051FE00BF80BD00BF6802002000380140B7
:1014280080B588B000AF786007F1100300221A6019
:101438005A609A60DA607B681B681C4A934231D113
:101448001B4B9B691A4A43F480439361184B9B6971
:1014580003F48043FB60FB68154B9B69144A43F017
:1014680004039361124B9B6903F00403BB60BB68E0
:101478004FF400733B6102237B610323FB6107F197
:10148800100319460B4800F0D1F94FF480633B6113
:1014980000237B610023BB6107F11003194605484F
:1014A80000F0C4F900BF2037BD4680BD00380140B8
:1014B8000010024000080140FFF728FF0B480C49C4
:1014C8000C4A002302E0D458C4500433C4188C4298
:1014D800F9D3094A094C002301E013600432A242FF
:1014E800FBD301F067FCFFF78FFD70470000002079
:1014F800EC0100206C7B0008EC010020C4020020F5
:10150800FEE7000080B500AF084B1B68074A43F0B0
:1015180010031360032000F047F9022000F008F8D8
:10152800FFF7CEFD0023184680BD00BF0020024013
:1015380080B582B000AF7860124B1A68124B1B78E6
:1015480019464FF47A73B3FBF1F3B2FBF3F3184681
:1015580000F05FF90346002B01D001230EE07B6801
:101568000F2B0AD8002279684FF0FF3000F027F9D6
:10157800064A7B681360002300E0012318460837F9
:10158800BD4680BD0C000020140000201000002083
:1015980080B400AF054B1B781A46054B1B681344F3
:1015A800034A136000BFBD4680BC7047140000208A
:1015B800B002002080B400AF024B1B681846BD463D
:1015C80080BC7047B002002080B584B000AF78605E
:1015D800FFF7F0FFB8607B68FB60FB68B3F1FF3F83
:1015E80005D00A4B1B781A46FB681344FB6000BF02
:1015F800FFF7E0FF0246BB68D31AFA689A42F7D8A9
:1016080000BF00BF1037BD4680BD00BF14000020DA
:1016180080B485B000AF78607B6803F00703FB6097
:101628000C4BDB68BB60BA684FF6FF031340BB6026
:10163800FB681A02BB68134343F0BF6343F40033EB
:10164800BB60044ABB68D36000BF1437BD4680BC8A
:10165800704700BF00ED00E080B400AF044BDB68CA
:101668001B0A03F007031846BD4680BC704700BF3D
:1016780000ED00E080B483B000AF0346FB7197F93A
:101688000730002B0BDBFB7903F01F02064997F9A3
:1016980007305B09012000FA02F241F8232000BF5D
:1016A8000C37BD4680BC704700E100E080B483B0D1
:1016B80000AF03463960FB7197F90730002B0ADB4E
:1016C8003B68DAB20C4997F907301201D2B20B44E1
:1016D80083F800230AE03B68DAB20849FB7903F093
:1016E8000F03043B1201D2B20B441A7600BF0C3729
:1016F800BD4680BC704700BF00E100E000ED00E09F
:1017080080B489B000AFF860B9607A60FB6803F014
:101718000703FB61FB69C3F10703042B28BF0423FC
:10172800BB61FB690433062B02D9FB69033B00E06C
:1017380000237B614FF0FF32BB6902FA03F3DA43FF
:10174800BB681A407B699A404FF0FF317B6901FA08
:1017580003F3D9437B680B40134318462437BD462F
:1017680080BC704780B582B000AF78607B68013B71
:10177800B3F1807F01D301230FE00A4A7B68013B64
:1017880053600F214FF0FF30FFF790FF054B002209
:101798009A60044B07221A60002318460837BD4692
:1017A80080BD00BF10E000E080B582B000AF786077
:1017B8007868FFF72DFF00BF0837BD4680BD80B5AC
:1017C80086B000AF0346B9607A60FB7300237B6183
:1017D800FFF742FF78617A68B9687869FFF790FF88
:1017E800024697F90F3011461846FFF75FFF00BF12
:1017F8001837BD4680BD80B582B000AF0346FB7187
:1018080097F907301846FFF735FF00BF0837BD4680
:1018180080BD80B582B000AF78607868FFF7A2FF1E
:10182800034618460837BD4680BD000080B48BB01B
:1018380000AF7860396000237B6200233B6279E166
:1018480001227B6A02FA03F3FB613B681B68FA69B1
:101858001340BB61BA69FB699A4240F068813B68F2
:101868005B68964A93425ED0944A934275D8944AEC
:10187800934258D0924A93426FD8924A934252D098
:10188800904A934269D8904A93424CD08E4A9342E8
:1018980063D88E4A934246D08C4A93425DD8122B25
:1018A8002AD8122B59D801A252F823F02F19000870
:1018B800091900081B1900085D19000863190008B8
:1018C8006319000863190008631900086319000800
:1018D80063190008631900086319000863190008F0
:1018E80063190008631900086319000863190008E0
:1018F8001119000825190008754A934213D02CE0E5
:101908003B68DB683B6229E03B68DB6804333B6289
:1019180024E03B68DB6808333B621FE03B68DB6818
:101928000C333B621AE03B689B68002B02D104230E
:101938003B6213E03B689B68012B05D108233B629F
:101948007B68FA691A6109E008233B627B68FA69D7
:101958005A6103E000233B6200E000BFBB69FF2B34
:1019680001D87B6801E07B6804337B61BB69FF2B8E
:1019780002D87B6A9B0002E07B6A083B9B003B61C4
:101988007B691A680F213B6901FA03F3DB431A40AC
:10199800396A3B6901FA03F31A437B691A603B68A9
:1019A8005B6803F08053002B00F0C180494B9B69B2
:1019B800484A43F001039361464B9B6903F00103D6
:1019C800BB60BB68444A7B6A9B08023352F82330E9
:1019D800FB607B6A03F003039B000F2202FA03F308
:1019E800DB43FA681340FB607B683C4A93421FD094
:1019F8007B683B4A934219D07B683A4A934213D09A
:101A08007B68394A93420DD07B68384A934207D0A5
:101A18007B68374A934201D105230AE0062308E090
:101A2800042306E0032304E0022302E0012300E08C
:101A380000237A6A02F0030292009340FA68134383
:101A4800FB6025497B6A9B080233FA6841F823202A
:101A58003B685B6803F48013002B06D0254B9A681B
:101A68002449BB6913438B6006E0224B9A68BB6923
:101A7800DB43204913408B603B685B6803F4001329
:101A8800002B06D01B4BDA681A49BB691343CB609D
:101A980006E0184BDA68BB69DB4316491340CB6094
:101AA8003B685B6803F40033002B25D0114B5A6860
:101AB8001049BB6913434B6025E000BF000032109A
:101AC8000000311000002210000021100000121048
:101AD8000000111000100240000001400008014001
:101AE800000C0140001001400014014000180140A2
:101AF800001C014000040140154B5A68BB69DB43D8
:101B0800134913404B603B685B6803F48033002B38
:101B180006D00F4B1A680E49BB6913430B6006E0E9
:101B28000B4B1A68BB69DB43094913400B607B6A9E
:101B380001337B623B681A687B6A22FA03F3002B45
:101B48007FF47EAE00BF00BF2C37BD4680BC704717
:101B58000004014080B483B000AF78600B467B80FE
:101B680013467B707B78002B03D07A887B681A61D8
:101B780003E07B881A047B681A6100BF0C37BD46F6
:101B880080BC704780B586B000AF78607B68002B5A
:101B980001D1012372E27B681B6803F00103002B6B
:101BA80000F08780924B5B6803F00C03042B0CD089
:101BB8008F4B5B6803F00C03082B12D18C4B5B68CE
:101BC80003F48033B3F5803F0BD1894B1B6803F4D2
:101BD8000033002B6CD07B685B68002B68D1012335
:101BE8004CE27B685B68B3F5803F06D1804B1B688D
:101BF8007F4A43F4803313602EE07B685B68002BD8
:101C08000CD17B4B1B687A4A23F480331360784BE2
:101C18001B68774A23F4802313601DE07B685B68A8
:101C2800B3F5A02F0CD1724B1B68714A43F4802383
:101C380013606F4B1B686E4A43F4803313600BE0EC
:101C48006B4B1B686A4A23F480331360684B1B682C
:101C5800674A23F4802313607B685B68002B13D0EA
:101C6800FFF7A8FC386108E0FFF7A4FC02463B69CF
:101C7800D31A642B01D9032300E25D4B1B6803F4DC
:101C88000033002BF0D014E0FFF794FC386108E033
:101C9800FFF790FC02463B69D31A642B01D9032352
:101CA800ECE1534B1B6803F40033002BF0D100E048
:101CB80000BF7B681B6803F00203002B63D04C4B0A
:101CC8005B6803F00C03002B0BD0494B5B6803F0F7
:101CD8000C03082B1CD1464B5B6803F48033002BA4
:101CE80016D1434B1B6803F00203002B05D07B6819
:101CF8001B69012B01D00123C0E13D4B1B6823F078
:101D0800F8027B685B69DB00394913430B603AE0F2
:101D18007B681B69002B20D0364B01221A60FFF725
:101D280049FC386108E0FFF745FC02463B69D31AD5
:101D3800022B01D90323A1E12D4B1B6803F00203F9
:101D4800002BF0D02A4B1B6823F0F8027B685B69F4
:101D5800DB00274913430B6015E0264B00221A606D
:101D6800FFF728FC386108E0FFF724FC02463B69CE
:101D7800D31A022B01D9032380E11D4B1B6803F002
:101D88000203002BF0D17B681B6803F00803002BCB
:101D98003AD07B689B69002B19D0174B01221A6037
:101DA800FFF708FC386108E0FFF704FC02463B69CE
:101DB800D31A022B01D9032360E10D4B5B6A03F0B0
:101DC8000203002BF0D0012000F0CEFA1CE00A4BF1
:101DD80000221A60FFF7EEFB38610FE0FFF7EAFB1D
:101DE80002463B69D31A022B08D9032346E100BFF8
:101DF800001002400000424280044242924B5B6A5B
:101E080003F00203002BE9D17B681B6803F004038D
:101E1800002B00F0A6800023FB758B4BDB6903F0D9
:101E28008053002B0DD1884BDB69874A43F08053E0
:101E3800D361854BDB6903F08053BB60BB6801232A
:101E4800FB75824B1B6803F48073002B18D17F4B02
:101E58001B687E4A43F480731360FFF7ABFB38615D
:101E680008E0FFF7A7FB02463B69D31A642B01D9A8
:101E7800032303E1754B1B6803F48073002BF0D038
:101E88007B68DB68012B06D16F4B1B6A6E4A43F0F7
:101E9800010313622DE07B68DB68002B0CD16A4BD1
:101EA8001B6A694A23F001031362674B1B6A664A7F
:101EB80023F0040313621CE07B68DB68052B0CD15C
:101EC800614B1B6A604A43F0040313625E4B1B6A52
:101ED8005D4A43F0010313620BE05B4B1B6A5A4AED
:101EE80023F001031362584B1B6A574A23F004037B
:101EF80013627B68DB68002B15D0FFF75BFB38614A
:101F08000AE0FFF757FB02463B69D31A41F28832D1
:101F1800934201D90323B1E04B4B1B6A03F0020340
:101F2800002BEED014E0FFF745FB38610AE0FFF71D
:101F380041FB02463B69D31A41F28832934201D9E8
:101F480003239BE0404B1B6A03F00203002BEED1F6
:101F5800FB7D012B05D13C4BDB693B4A23F08053C9
:101F6800D3617B68DB69002B00F08780364B5B68A8
:101F780003F00C03082B61D07B68DB69022B46D188
:101F8800334B00221A60FFF715FB386108E0FFF7B2
:101F980011FB02463B69D31A022B01D903236DE0DA
:101FA800294B1B6803F00073002BF0D17B681B6A78
:101FB800B3F5803F08D1244B5B6823F400327B687B
:101FC8009B68214913434B601F4B5B6823F47412D1
:101FD8007B68196A7B685B6A0B431B4913434B6038
:101FE8001B4B01221A60FFF7E5FA386108E0FFF79A
:101FF800E1FA02463B69D31A022B01D903233DE0DB
:10200800114B1B6803F00073002BF0D035E0104B28
:1020180000221A60FFF7CEFA386108E0FFF7CAFA23
:1020280002463B69D31A022B01D9032326E0064B4B
:102038001B6803F00073002BF0D11EE07B68DB699E
:10204800012B07D1012319E0001002400070004065
:10205800600042420B4B5B68FB60FB6803F4803214
:102068007B681B6A9A4206D1FB6803F470127B688E
:102078005B6A9A4201D0012300E000231846183712
:10208800BD4680BD0010024080B584B000AF7860C6
:1020980039607B68002B01D10123D0E06A4B1B68B3
:1020A80003F007033A689A4210D9674B1B6823F07C
:1020B800070265493B6813430B60634B1B6803F0D9
:1020C80007033A689A4201D00123B8E07B681B688D
:1020D80003F00203002B20D07B681B6803F0040385
:1020E800002B05D0594B5B68584A43F4E0635360B2
:1020F8007B681B6803F00803002B05D0534B5B6813
:10210800524A43F460535360504B5B6823F0F0022B
:102118007B689B684D4913434B607B681B6803F0E1
:102128000103002B40D07B685B68012B07D1474B2C
:102138001B6803F40033002B15D101237FE07B6873
:102148005B68022B07D1414B1B6803F00073002B1F
:1021580009D1012373E03D4B1B6803F00203002BF8
:1021680001D101236BE0394B5B6823F003027B68E4
:102178005B68364913434B60FFF71CFAF8600AE0C6
:10218800FFF718FA0246FB68D31A41F288329342E5
:1021980001D9032353E02D4B5B6803F00C027B68E5
:1021A8005B689B009A42EBD1274B1B6803F007033F
:1021B8003A689A4210D2244B1B6823F0070222493E
:1021C8003B6813430B60204B1B6803F007033A6816
:1021D8009A4201D0012332E07B681B6803F00403B4
:1021E800002B08D0194B5B6823F4E0627B68DB683E
:1021F800164913434B607B681B6803F00803002BE8
:1022080009D0124B5B6823F460527B681B69DB00C2
:102218000E4913434B6000F021F802460B4B5B68F4
:102228001B0903F00F030A49CB5C22FA03F3094A9E
:102238001360094B1B681846FFF77AF90023184604
:102248001037BD4680BD00BF00200240001002408C
:10225800907600080C0000201000002080B487B0A1
:1022680000AF0023FB600023BB6000237B610023D9
:102278007B6000233B611E4B5B68FB60FB6803F0DF
:102288000C03042B02D0082B03D027E0194B3B6129
:1022980027E0FB689B0C03F00F03174AD35C7B60B5
:1022A800FB6803F48033002B10D0114B5B685B0C88
:1022B80003F00103114AD35CBB607B680D4A03FB42
:1022C80002F2BB68B2FBF3F37B6104E07B680C4A63
:1022D80002FB03F37B617B693B6102E0054B3B61D9
:1022E80000BF3B6918461C37BD4680BC704700BF1D
:1022F8000010024000127A00A8760008B87600089C
:1023080000093D0080B400AF024B1B681846BD466B
:1023180080BC70470C00002080B500AFFFF7F2FFCB
:102328000246054B5B681B0A03F007030349CB5CB5
:1023380022FA03F3184680BD00100240A076000878
:1023480080B500AFFFF7DEFF0246054B5B68DB0A8E
:1023580003F007030349CB5C22FA03F3184680BD58
:1023680000100240A076000880B485B000AF786005
:102378000A4B1B680A4AA2FB03235B0A7A6802FB22
:1023880003F3FB6000BFFB685A1EFA60002BF9D10B
:1023980000BF00BF1437BD4680BC70470C0000204A
:1023A800D34D621080B582B000AF78607B68002B97
:1023B80001D1012341E07B6893F83D30DBB2002B6B
:1023C80006D17B68002283F83C207868FEF7D8FFA6
:1023D8007B68022283F83D207B681A687B68043397
:1023E8001946104600F0BAF97B68012283F84620A6
:1023F8007B68012283F83E207B68012283F83F2016
:102408007B68012283F840207B68012283F8412001
:102418007B68012283F842207B68012283F84320ED
:102428007B68012283F844207B68012283F84520D9
:102438007B68012283F83D20002318460837BD46F3
:1024480080BD000080B485B000AF78607B6893F8E9
:102458003D30DBB2012B01D0012344E07B6802222E
:1024680083F83D207B681B68DA687B681B6842F04C
:102478000102DA607B681B681D4A934218D07B68AA
:102488001B681C4A934213D07B681B68B3F1804FCA
:102498000ED07B681B68184A934209D07B681B687A
:1024A800164A934204D07B681B68154A934211D19F
:1024B8007B681B689B6803F00703FB60FB68062BBF
:1024C80010D07B681B681A687B681B6842F00102A1
:1024D8001A6007E07B681B681A687B681B6842F013
:1024E80001021A60002318461437BD4680BC7047A5
:1024F800002C014000340140000400400008004066
:10250800000C004080B582B000AF78607B681B6823
:102518001B6903F00203022B22D17B681B68DB686E
:1025280003F00203022B1BD17B681B686FF00202C9
:102538001A617B6801221A777B681B689B6903F024
:102548000303002B03D0786800F0EDF805E0786805
:1025580000F0E0F8786800F0EFF87B6800221A775E
:102568007B681B681B6903F00403042B22D17B687A
:102578001B68DB6803F00403042B1BD17B681B6812
:102588006FF004021A617B6802221A777B681B6865
:102598009B6903F44073002B03D0786800F0C3F8FC
:1025A80005E0786800F0B6F8786800F0C5F87B6850
:1025B80000221A777B681B681B6903F00803082B45
:1025C80022D17B681B68DB6803F00803082B1BD14A
:1025D8007B681B686FF008021A617B6804221A770F
:1025E8007B681B68DB6903F00303002B03D0786862
:1025F80000F099F805E0786800F08CF8786800F049
:102608009BF87B6800221A777B681B681B6903F0BC
:102618001003102B22D17B681B68DB6803F01003C2
:10262800102B1BD17B681B686FF010021A617B6846
:1026380008221A777B681B68DB6903F44073002B58
:1026480003D0786800F06FF805E0786800F062F869
:10265800786800F071F87B6800221A777B681B683D
:102668001B6903F00103012B0ED17B681B68DB6833
:1026780003F00103012B07D17B681B686FF001028F
:102688001A617868FEF75CFB7B681B681B6903F0BE
:102698008003802B0ED17B681B68DB6803F0800306
:1026A800802B07D17B681B686FF080021A617868FD
:1026B80000F043F97B681B681B6903F04003402B5B
:1026C8000ED17B681B68DB6803F04003402B07D101
:1026D8007B681B686FF040021A61786800F035F873
:1026E8007B681B681B6903F02003202B0ED17B68D5
:1026F8001B68DB6803F02003202B07D17B681B686D
:102708006FF020021A61786800F00EF900BF0837F0
:10271800BD4680BD80B483B000AF786000BF0C3781
:10272800BD4680BC704780B483B000AF786000BFFE
:102738000C37BD4680BC704780B483B000AF78606A
:1027480000BF0C37BD4680BC704780B483B000AF73
:10275800786000BF0C37BD4680BC704780B485B038
:1027680000AF786039607B681B68FB607B68334A20
:10277800934213D07B68324A93420FD07B68B3F1FF
:10278800804F0BD07B682F4A934207D07B682E4A34
:10279800934203D07B682D4A934208D1FB6823F00B
:1027A8007003FB603B685B68FA681343FB607B68F7
:1027B800224A934213D07B68214A93420FD07B6808
:1027C800B3F1804F0BD07B681E4A934207D07B68D9
:1027D8001D4A934203D07B681C4A934208D1FB6888
:1027E80023F44073FB603B68DB68FA681343FB60C3
:1027F800FB6823F080023B685B691343FB607B68DE
:10280800FA681A603B689A687B68DA623B681A68FB
:102818007B689A627B68094A934203D07B68084ABE
:10282800934203D13B681A697B681A637B6801226B
:102838005A6100BF1437BD4680BC7047002C014068
:10284800003401400004004000080040000C004033
:1028580080B485B000AF786039607B6893F83C300D
:10286800012B01D1022350E07B68012283F83C2030
:102878007B68022283F83D207B681B685B68FB60ED
:102888007B681B689B68BB60FB6823F07003FB6078
:102898003B681B68FA681343FB607B681B68FA682F
:1028A8005A607B681B681B4A934218D07B681B6878
:1028B800194A934213D07B681B68B3F1804F0ED03E
:1028C8007B681B68154A934209D07B681B68144AC9
:1028D800934204D07B681B68124A93420CD1BB68B0
:1028E80023F08003BB603B685B68BA681343BB6036
:1028F8007B681B68BA689A607B68012283F83D2070
:102908007B68002283F83C20002318461437BD4614
:1029180080BC7047002C0140003401400004004096
:1029280000080040000C004080B483B000AF78601D
:1029380000BF0C37BD4680BC704780B483B000AF81
:10294800786000BF0C37BD4680BC704780B582B048
:1029580000AF78607B68002B01D1012342E07B68DF
:1029680093F84130DBB2002B06D17B68002283F854
:1029780040207868FEF754FD7B68242283F84120C4
:102988007B681B68DA687B681B6822F40052DA608F
:10299800786800F07BF97B681B681A697B681B689C
:1029A80022F490421A617B681B685A697B681B682D
:1029B80022F02A025A617B681B68DA687B681B6808
:1029C80042F40052DA607B6800225A647B68202255
:1029D80083F841207B68202283F842207B6800220C
:1029E8005A63002318460837BD4680BD80B58AB0B3
:1029F80002AFF860B9603B601346FB8000237B613F
:102A0800FB6893F84130DBB2202B6DD1BB68002BFB
:102A180002D0FB88002B01D1012366E0FB6800226D
:102A28005A64FB68212283F84120FEF7C3FD7861D0
:102A3800FB68FA889A84FB68FA88DA84FB689B68E2
:102A4800B3F5805F08D1FB681B69002B04D1002314
:102A5800FB61BB68BB6103E0BB68FB610023BB6132
:102A68002AE03B6800937B6900228021F86800F027
:102A780065F80346002B01D0032336E0FB69002BE1
:102A88000BD1BB691B881A46FB681B68C2F3080296
:102A98005A60BB690233BB6107E0FB691A78FB68BF
:102AA8001B685A60FB690133FB61FB68DB8C9BB2D6
:102AB800013B9AB2FB68DA84FB68DB8C9BB2002B83
:102AC800CFD13B6800937B6900224021F86800F071
:102AD80035F80346002B01D0032306E0FB682022CB
:102AE80083F84120002300E0022318462037BD4622
:102AF80080BD80B584B000AFF860B9601346FB8034
:102B0800FB6893F84230DBB2202B12D1BB68002B54
:102B180002D0FB88002B01D101230BE0FB680022C7
:102B28001A63FB881A46B968F86800F075F8034616
:102B380000E0022318461037BD4680BD80B590B02E
:102B480000AFF860B9603B601346FB7150E0BB6CA6
:102B5800B3F1FF3F4CD0BB6C002B07D0FEF72AFD2A
:102B680002463B68D31ABA6C9A4241D2FB681B688A
:102B78000C33BB62BB6A53E8003F7B627B6A23F479
:102B8800D073FB63FB681B680C33FA6B7A633B6397
:102B9800396B7A6B41E80023FB62FB6A002BE5D1B5
:102BA800FB681B6814337B617B6953E8003F3B611A
:102BB8003B6923F00103BB63FB681B681433BA6BE2
:102BC8003A62FB61F9693A6A41E80023BB61BB6973
:102BD800002BE5D1FB68202283F84120FB682022E6
:102BE80083F84220FB68002283F8402003230FE08B
:102BF800FB681B681A68BB681340BA689A420CBF26
:102C080001230023DBB21A46FB799A429FD00023A6
:102C180018464037BD4680BD80B485B000AFF86027
:102C2800B9601346FB80FB68BA689A62FB68FA8849
:102C38009A85FB68FA88DA85FB6800225A64FB6883
:102C4800222283F84220FB681B69002B07D0FB680F
:102C58001B68DA68FB681B6842F48072DA60FB68FC
:102C68001B685A69FB681B6842F001025A61FB68DD
:102C78001B68DA68FB681B6842F02002DA600023F0
:102C880018461437BD4680BC7047000080B584B034
:102C980000AF78607B681B681B6923F440517B6830
:102CA800DA687B681B680A431A617B689A687B68E4
:102CB8001B691A437B685B691343BB607B681B68AD
:102CC800DB6823F4B05323F00C037A681268B96800
:102CD8000B43D3607B681B685B6923F440717B6896
:102CE8009A697B681B680A435A617B681B682C4A8F
:102CF800934203D1FFF724FBF86002E0FFF70CFBD7
:102D0800F860FA6813469B0013449A001A447B68DB
:102D18005B689B00B2FBF3F3224AA2FB03235B0927
:102D28001901FA6813469B0013449A001A447B68F9
:102D38005B689B00B2FBF3F21A4BA3FB02035B092F
:102D4800642000FB03F3D31A1B013233154AA2FB9C
:102D580003235B0903F0F0031944FA6813469B0048
:102D680013449A001A447B685B689B00B2FBF3F239
:102D78000C4BA3FB02035B09642000FB03F3D31A8B
:102D88001B013233074AA2FB03235B0903F00F023E
:102D98007B681B680A449A6000BF1037BD4680BD37
:102DA800003801401F85EB51014B1868704700BF80
:102DB8001800002070B500260C4D0D4C641BA410A3
:102DC800A64209D104F052FC00260A4D0A4C641BA5
:102DD800A410A64205D170BD55F8043B98470136AA
:102DE800EEE755F8043B98470136F2E7647B0008A4
:102DF800647B0008647B0008687B00080346024483
:102E0800934200D1704703F8011BF9E7002B2DE925
:102E1800F0471F46BBBF03F100431F4600232D2385
:102E280088B01446129A109D1370149BDDF84CA0BC
:102E380023F02008B8F1460F05D0B8F1450F00D1AE
:102E48000135022300E0032307AA049206AACDE96C
:102E580002A2CDE9003522463B4601F085FDB8F1D6
:102E6800470F064602D1119BDB0722D5B8F1460F62
:102E780006EB050910D13378302B0AD10022002344
:102E880020463946FDF7F8FD18B9C5F10105CAF81D
:102E98000050DAF8003099440022002320463946D1
:102EA800FDF7EAFD08B1CDF81C903022079B4B4591
:102EB80007D33046079B159A9B1B136008B0BDE8E3
:102EC800F087591C07911A70F0E70346F7B50029F7
:102ED80003F8022BB6BF2D222B2249420929427042
:102EE8002BDD0DF10704A4460A2791FBF7F60A46E5
:102EF800A64607FB1615632A05F13005314604F18D
:102F0800FF340EF8015CF0DC3031AEF1020504F854
:102F1800011C2946441C61450AD30DF10902A2EBA4
:102F28000E02654588BF00221344181A03B0F0BD8D
:102F380011F8012B04F8012FEDE7302330318370AD
:102F4800C170031DF1E700002DE9F04F91B00C4668
:102F5800DDF8688016461F46054602F059FE0368EC
:102F680018460993FDF75CF900230E93D8F8003052
:102F78000A90073323F0070303F1080294F8189026
:102F8800D4F800B0C8F80020D3E90023C4E912231C
:102F9800D4E9128A2AF000430B934FF0FF324046DF
:102FA8009C4B0B99FDF79AFD70BB4FF0FF324046E2
:102FB800984B0B99FDF774FD30BB00220023404667
:102FC8005146FDF763FD10B12D2384F84330924B31
:102FD8009248B9F1470F94BF9846804603234FF0B3
:102FE800000A23612BF00403236033462146284658
:102FF80000970FAA00F0D4F9013040F090804FF00C
:10300800FF3011B0BDE8F08F424653464046514666
:10301800FDF764FD48B1BAF1000FB8BF2D23804811
:10302800B8BF84F843307F4BD3E7636809F0DF010A
:103038005A1C42D106236360002206920EAACDE9EB
:1030480004920DAA4BF4806303920DF13302CDE98B
:1030580001322360636842460093284653460B9129
:10306800FFF7D4FE0B99804647290D9908D1C81C53
:1030780002DB6368994240DDA9F102095FFA89F928
:10308800B9F1650F1FD84A46013904F150000D9176
:10309800FFF71BFF0E9A82461318012A236102DCF0
:1030A8002268D20701D5013323619DF83330002B04
:1030B8009BD02D2384F8433097E74729BCD1002BB8
:1030C800BAD10123B7E7B9F1660F18D100296368AF
:1030D8000BDD216113B92268D00702D501330B44F7
:1030E80023614FF0000AA165DFE713B92268D20710
:1030F80001D50233F4E70123F2E74FF067090E9B8D
:10310800994205DB23682161D807EAD54B1CE7E71C
:103118000029CCBF0122C1F102021344E0E7236871
:103128005A0507D42369424631462846B847013034
:103138002BD164E7B9F1650F40F2DD80D4E91201C3
:1031480000220023FDF798FC002833D001233146E4
:103158002846354AB84701303FF451AFDDE90D2321
:103168009A4202DB2368D8070FD5DDE909233146E7
:103178002846B84701303FF442AF4FF0000804F149
:103188001A090E9B013B434509DC23689B0700F1A4
:103198000281E0680F9B9842B8BF184631E70123C7
:1031A8004A4631462846B84701303FF428AF08F16F
:1031B8000108E6E70D9B002B38DC01233146284641
:1031C800194AB84701303FF41AAFDDE90D2313431C
:1031D80002D12368D907D8D5DDE909233146284625
:1031E800B84701303FF40BAF4FF0000904F11A0A59
:1031F8000D9B5B424B4501DC0E9B94E70123524635
:1032080031462846B84701303FF4F9AE09F10109C3
:10321800EEE700BFFFFFEF7FC0760008C476000826
:10322800CC760008C8760008D07600080E9AA36D00
:103238009A42A8BF1A46002A914637DC4FF0000B85
:1032480029EAE97904F11A02D4F858A0AAEB09038B
:103258005B4533DCDDE90D239A423BDB2368DA0763
:1032680038D40E9B0D99A3EB0A02A3EB01099145F3
:10327800A8BF9146B9F1000F34DC4FF0000829EAE5
:10328800E97904F11A0ADDE90D239B1AA3EB090376
:1032980043457FF77AAF0123524631462846B8475F
:1032A80001303FF4ACAE08F10108ECE713463146B3
:1032B80042462846B8470130C0D1A0E6012331462E
:1032C80028460B92B84701303FF499AE0B9A0BF1A0
:1032D800010BB9E73146DDE909232846B847013033
:1032E800BFD18CE64B463146284608EB0A02B84760
:1032F8000130C2D183E60E9A012A01DCDB0737D5FB
:103308000123424631462846B84701303FF477AE9C
:10331800DDE9092331462846B84701303FF46FAE4E
:10332800D4E9120100220023FDF7A6FBD8B90E9BB1
:1033380008F10102013B31462846B84701300ED159
:103348005DE601234A4631462846B84701303FF436
:1033580056AE08F101080E9B013B4345F1DC53468C
:1033680004F15002E0E64FF0000804F11A09F2E710
:1033780001234246DFE701234A4631462846B8473B
:1033880001303FF43CAE08F10108E3680F995B1A7D
:103398004345F0DCFDE64FF0000804F11909F4E7B5
:1033A8002DE9F047164699468A680B690746934205
:1033B800B8BF1346336091F843200C46DDF82080EF
:1033C8000AB1013333602368990642BF3368023378
:1033D8003360256815F0060506D104F1190AE3687B
:1033E80032689B1AAB4228DC94F84320131E2268EB
:1033F80018BF012392062DD44946384604F14302EA
:10340800C047013020D02368E56803F00603042B89
:1034180018BF002532684FF00006A36808BFAD1A30
:10342800226908BF25EAE5759342C4BF9B1AED18C7
:103438001A34B5421AD1002008E001235246494601
:103448003846C047013003D14FF0FF30BDE8F08760
:103458000135C4E73020E11881F843005A1C94F87C
:1034680045102244023382F84310C5E7012322465F
:1034780049463846C0470130E6D00136D9E7000052
:103488002DE9FF470F7E9146782F80460C469A46D5
:103498000C9D01F1430207D8622F0AD8002F00F0D3
:1034A800D980582F00F0A48004F1420584F84270B6
:1034B8003AE0A7F16303152BF6D801A151F823F0E0
:1034C8002135000835350008B1340008B13400084A
:1034D800B1340008B134000835350008B1340008AB
:1034E800B1340008B1340008B1340008433600088C
:1034F8006535000825360008B1340008B1340008E5
:1035080065360008B134000865350008B134000894
:10351800B13400082D3600082B681A1D1B682A6074
:1035280004F1420584F842300123A4E020682968A8
:10353800060601F104030AD50E682B60002E03DA93
:103548002D23764284F843300A235E4819E00E683A
:1035580010F0400F2B6018BF36B2EFE72B682068D9
:10356800191D2960010601D51E6802E04606FBD533
:103578001E886F2F0CBF08230A235248002184F8A5
:1035880043106568002DA8BF2168A560A4BF21F07D
:10359800040121600EB9002D4DD01546B6FBF3F19C
:1035A80003FB1167C75D05F8017D3746BB420E4630
:1035B800F4D9082B0BD12368DE0708D52369616885
:1035C8009942DEBF302305F8013C05F1FF35521B57
:1035D80022614B4621464046CDF800A003AAFFF7DA
:1035E800DFFE01304CD14FF0FF3004B0BDE8F0876A
:1035F800344881F845702968236851F8046B2960BC
:103608001D0614D5DF0744BF43F0200323601EB90D
:10361800236823F0200323601023AFE7236843F0D7
:10362800200323607823284884F84530E3E75906C7
:1036380048BFB6B2E6E71546BBE72B682668181DF3
:103648006169286035061B6801D5196002E07006BB
:10365800FBD51980002315462361BAE72B680021A2
:103668001A1D2A601D686268284602F0EFFA08B140
:10367800401B606063682361002384F84330A8E737
:103688002A46494640462369D0470130ABD02368D3
:103698009B0713D4E068039B9842B8BF1846A4E779
:1036A8000123324649464046D04701309BD0013578
:1036B800E36803995B1AAB42F2DCEBE7002504F1FF
:1036C8001906F5E7D2760008E37600082DE9F04FF1
:1036D80087B003938B6817465A1EB2F5AE7F85BF35
:1036E8006FF4AE755B190023029388BF40F25D1337
:1036F8008B464FF000058CBF8B6002930B688046A9
:1037080043F4F0634BF81C3B0C465E46AA46A946B8
:10371800CDE904550195A26852B13B681B784E2B40
:1037280064D8402B3CD8A3F12B01C8B20E283AD953
:10373800B9F1000F03D0236823F4807323600AF1E2
:10374800FF3ABAF1010F00F213815E4500F20581DC
:103758000125284607B0BDE8F08FA3F161020D2AC4
:10376800E6D801A151F822F0AF380008393700082F
:1037780039370008393700080F390008E7380008DA
:103788003937000839370008BD38000839370008CC
:103798003937000839370008393700087538000804
:1037A800A3F14102DBE70E29C2D801A050F821F0AD
:1037B800673800083937000867380008FB38000800
:1037C8003937000815380008513800085138000802
:1037D800513800085138000851380008513800089D
:1037E8005138000851380008513800086E2B09D8A4
:1037F800602BB2D8542B77D0592B99D1072D97D15C
:10380800082529E0742B6FD0792BF6E72168C805C5
:103818001AD5029B21F08001216009F101091BB131
:10382800013B01320293A260A368013BA3602369B4
:10383800013323617B68013B002B7B6040F384806C
:103848003B6801333B6066E71AEB050F7FF470AF06
:10385800226822F4C072226006F8013BE4E722687D
:1038680010067FF565AF22F08002F4E7BAF1000F89
:103878000ED1B9F1000F0ED1226802F4E061B1F562
:10388800E06F08D122F4F0624FF0010A2260E3E70A
:10389800BAF1020F55D0012D02D0042D7FF448AFA4
:1038A8000135EDB2D8E7BAF1010F7FF441AF4FF01F
:1038B800020AD1E77DB9B9F1000F7FF43CAF226865
:1038C80002F4E061B1F5E06F7FF439AF22F4F06201
:1038D80001252260C0E7032DE2D0052DDEE7022D89
:1038E8007FF426AF0325B7E7062D7FF421AF072520
:1038F800B2E7226891057FF51BAF22F4207222609F
:10390800CDF80490A8E7226802F4A061B1F5806FB1
:1039180006D050057FF50CAFB9F1000F3FF40FAF9B
:10392800910558BF019922F4F06258BFA9EB010133
:1039380042F4C0724FF0000958BFCDE90416226066
:103948008AE74FF0030A87E739464046D4F88031C2
:10395800984700283FF4DFAEEAE6D4F87C313A46CF
:10396800404616F8011D98472369013B2361ECE6A0
:103978006B1E062B25D8022D36D85E457FF6E8AE9D
:10398800D4F87C313A46404616F8011D9847236919
:10399800013B2361F1E70298D4F87C3110F8011D4E
:1039A8003A460290404698472369013B23610AF151
:1039B800FF3A5FFA8AFABAF1020FECD1033DEDB291
:1039C800761B2368DA052FD55B0510D55E457FF693
:1039D800BFAED4F87C313A46404616F8011D9847E8
:1039E8002369013B2361F1E7AA460296DFE716F84F
:1039F800011C2369652903F1FF3306F1FF352361B3
:103A08000CD045290AD0D4F87C313A46404698472C
:103A1800236916F8021C013BB51E23613A4640464D
:103A2800D4F87C3198472E46256815F0100555D1F5
:103A38003570236803F4C063B3F5806F1BD1019B15
:103A48004B45A3EB090223D100225946404600F01A
:103A58007BFE2268039B12F0020F06460F461B6886
:103A680021D01A1D03990A601B68C3E90067E3683F
:103A78000133E3606DE6049B002BE5D005990A232A
:103A88002A464046013100F0E1FE049B059EC21A19
:103A980004F26F139E4228BF04F5B77630461049EA
:103AA80000F026F8D0E712F0040F03F10402D9D190
:103AB800DDF80CC0CCF80020D3F8008002460B4695
:103AC800FDF70CF828B1074800F00EF8C8F8000018
:103AD800CDE730463946FDF75FF8F7E7002538E6C9
:103AE800F4760008007B0008004870470000C07F9B
:103AF8000EB46FF0004100B59CB01DAB029006906B
:103B0800079104910848094953F8042B0591006866
:103B180002A9019302F0BAFE0022029B1A701CB09F
:103B28005DF804EB03B07047180000200802FFFF9F
:103B38002DE9F0410F46904602F014FC04460D466C
:103B4800B8F1000F11D0C7F30A53C3F16B03002B70
:103B58000BDD00241B0503F17F5505F540152246B2
:103B68002B46FCF721FD04460D4620462946BDE8B4
:103B7800F0810000000000002DE9F04F9B46002373
:103B88009FB01A939E4B82461F680E463846159280
:103B9800FCF746FB4FF0000804464FF00009199661
:103BA800199B1A782B2A4CD03AD80D2A33D8082AD0
:103BB80033D8002A3DD000230A93199D2B78302B47
:103BC80040F0AA806B7803F0DF03582B66D10A9B7C
:103BD800504601931AAB00938A4ACDF808B01BAB44
:103BE80019A901F017FD10F00706044605D0062EA6
:103BF80029D10023013519950A93159B002B40F014
:103C08008A850A9BD3B1424609F1004310461946FA
:103C18001FB0BDE8F08F202ACDD101331993BFE73B
:103C28002D2AC8D101220A925A1C19925B78002BBE
:103C3800C3D1159B1996002B40F06B8542464B4625
:103C4800E4E70022EFE71A9A3AB135211CA802F0FE
:103C58008DFC50461A9902F055F8013E042E06D8FC
:103C6800DFE806F00A0314170A00DDE91C892107BA
:103C7800C3D549F00049C0E71B9ADDE91C8302F26D
:103C8800334223F4801343EA0259F0E7DFF87891CE
:103C9800EDE76FF000494FF0FF38E8E7199B5A1C31
:103CA80019925B78302BF9D0002BA6D0012307930B
:103CB800199B0A22089300239B46CDE905331998DE
:103CC8000578A5F13003D9B2092927D92246394602
:103CD80002F0F2FE002833D000202A465C46034654
:103CE8000490652A01D0452A14D11CB9079A0243C9
:103CF8009FD00024199E721C199272782B2A79D0B1
:103D08002D2A00F083800027A2F13001092940F212
:103D18008380199600259FE00023C8E7BBF1080FB0
:103D2800D5BF0699059902FB013302FB013300F167
:103D38000100D4BF069305930BF1010B1990BEE760
:103D4800199B1A1919921A5DBBF1000F36D05C46FF
:103D58000490A2F13003092B12D90123C1E7199B62
:103D680001305A1C19925A78302AF8D0A2F131033E
:103D7800082B00F2D584049000200446199B089370
:103D8800303A00F1010313D004990519194404913C
:103D980023460A21AB4213D12318082B04F101044E
:103DA80004441BDC0A23069903FB01230693002322
:103DB800199A1846511C19915278CAE75846D3E700
:103DC800082B04DC069F4F4306970133E2E75F1C8C
:103DD800102FDEBF059F4F430597F6E7102CDFBF76
:103DE8000A23059903FB01230593E0E700230493C5
:103DF80001237BE70027B21C1992B27884E700BF41
:103E080048790008FC7600080000F07F0127F2E7F7
:103E1800199A511C19915278302AF9D0A2F131011E
:103E280008293FF677AF4FF00A0EA2F1300C199A25
:103E38000992199A511C19915278A2F13005092D4D
:103E480035D9099D491B082944F61F6502DC6545DB
:103E5800A8BF654607B16D42002C4CD107990143B4
:103E68007FF4CBAE002B7FF4E4AE692A26D023DCA6
:103E7800492A23D04E2A7FF4DCAE9D4919A801F0C7
:103E880017FE00283FF4D5AE199B1B78282B2CD1A0
:103E980098491CAA19A801F01FFE052825D11D9BC9
:103EA800DDF8708043F0FF4949F4E009A5E60EFB10
:103EB8000C2CACF1300CBCE76E2ADCE78E4919A853
:103EC80001F0F6FD00283FF4B4AE199B8B49013B85
:103ED80019A8199301F0ECFD10B9199B0133199336
:103EE8004FF00008DFF8189287E6864802F0CEFD0A
:103EF8008046894681E6049BBBF1000F08BFA346B4
:103F0800EB1A102C069826460793A8BF1026FCF734
:103F1800D1FA092C8046894613DD7B4B03EBC60397
:103F280053E91223FCF740FB804605988946FCF7C5
:103F3800C1FA02460B4640464946FCF77FF98046DF
:103F480089460F2C36DC079B002B3FF456AE22DD4A
:103F5800162B09DC6C49424601EBC3014B46D1E9FB
:103F68000001FCF721FBC3E7079AC4F1250393423C
:103F780020DB654DC4F10F0405EBC4014246D1E9CD
:103F880000014B46FCF710FB079B1C1B05EBC40507
:103F9800D5E90023E5E7079B16330BDB049B404676
:103FA8005D1B594B494603EBC505D5E90023FCF7D2
:103FB80025FC9DE7079BA61B1E44002E74DD16F00A
:103FC8000F030AD05049424601EBC301D1E9000171
:103FD8004B46FCF7E9FA8046894636F00F0652D080
:103FE800B6F59A7F27DD4FF0000BCDF810B0CDF86D
:103FF80020B0CDF818B022234FF00008DFF8009168
:10400800CAF80030089B002B3FF4F7AD50461A99C8
:1040180001F078FE5046069901F074FE5046049966
:1040280001F070FE5046089901F06CFE5946504662
:1040380001F068FEE1E5354B40460593002349460B
:104048001F463611012E21DC0BB1804689462F4BC5
:10405800A9F1547903EBC7074246D7E900014B465B
:10406800FCF7A2FA264B0A460B40294980468B42A8
:10407800B9D8A1F580118B4286BF4FF0FF38DFF821
:10408800949002F15479002305937FE0F20705D557
:10409800059BD3E90023FCF787FA0123059A01372A
:1040A800083276100592CDE7EDD0764216F00F0271
:1040B8000AD0154B404603EBC2034946D3E9002317
:1040C800FCF79CFB804689463611DCD01F2E23DD89
:1040D8004FF0000BCDF810B0CDF820B0CDF818B0E7
:1040E80022234FF000084FF00009CAF8003089E792
:1040F800CD76000810770008C576000854780008C7
:104108000000F07F007B0008E0790008B87900081B
:104118000000A07CFFFFEF7F16F0100318BF6A2392
:104128004046059349460023B04FF20704D5D7E926
:104138000023FCF739FA0123761007F10807F4D1B8
:104148000BB180468946059BC3B1C9F30A52C2F137
:104158006B03002B494611DD1F2B40F32781342BBD
:10416800D8BF4FF0FF334FF00008CFBF4FF05C7956
:10417800C2F14B0203FA02F202EA0109002200230B
:1041880040464946FCF778FC0028A1D1069B5A46D0
:10419800009350462346089901F01CFE0890002819
:1041A8003FF421AF049B4FF0000B5D1B079BCDF83C
:1041B80010B0002BB4BF2B4600230E93079B23EAB5
:1041C800E3731493089B5046596801F05BFD069011
:1041D80000283FF410AF089B0C301A6903F10C015A
:1041E8000232920001F040FD1CAB01931BAB00931F
:1041F80042464B465046CDE90C8902F02DF91A90FB
:1042080000283FF4F8AE0121504601F07BFE03463A
:10421800049000283FF4EFAE1B9D1C9A002DABBF05
:104228000E9B149BEE185C1B059BA8BF149CA5EB6A
:10423800030515446E4B05F1FF35B8BF0E9E9D4230
:10424800C2F1360280F2C4805B1B1F2B4FF00107BE
:10425800A2EB030200F3B180002507FA03F30F93E2
:10426800B718059BBE4214441C443346A8BF3B46BE
:10427800A342A8BF2346002BC2BFFF1AE41AF61AAE
:104288000E9B002B17DD1A465046049901F0F8FEE4
:10429800049000283FF4AFAE01461A9A504601F048
:1042A80047FE099000283FF4A6AE50461A9901F03F
:1042B80029FD099B1A93002F00F38E80079B002B82
:1042C80008DD5046149A069901F0DAFE0690002897
:1042D8003FF491AE002C08DD22465046069901F0C5
:1042E80029FF069000283FF486AE002E08DD3246EE
:1042F8005046049901F01EFF049000283FF47BAE5D
:104308005046069A1A9901F0A1FF834600283FF407
:1043180072AE0024C3680499C4600B9301F07AFF5D
:10432800A0426BDA0B9B53EA080340F09180C9F373
:104338001303002B40F08C8029F000431B0D1B0554
:10434800B3F1D66F40F28480DBF814301BB9DBF888
:104358001030012B7CDD59460122504601F0EAFE5F
:104368000499834601F056FF002871DD05994B46F4
:10437800204A002900F08C8002EA0901B1F1D66FC9
:1043880000F38680B1F15C7F7FF7AAAE40464946CC
:10439800194B0022FCF708F90B46034308BF2223F8
:1043A8008046894608BFCAF800302FE64FF0FF3232
:1043B80002FA03F303EA0808E0E6C5F17F4505F5CC
:1043C8007F0505F57B45E23507FA05F50F9747E7C1
:1043D800012300250F9343E73A4650461A9901F006
:1043E800A9FE1A9000287FF469AF04E62877000830
:1043F80002FCFFFF0000F07F00005039CDF8249048
:1044080065D10B9AC9F313035AB3994A93422BD136
:10441800059B414603B34A46964B1340B3F1D46F0C
:104428004FF0FF321BD81B0DC3F16B0302FA03F3E5
:10443800994219D1904B099A9A4202D101313FF41D
:10444800DAAD4FF000088B4B099A1A4002F5801933
:10445800059B002B9AD1D9E54FF0FF33E8E71346C7
:10446800E6E753EA080381D0E5B1099B1D42EFD086
:104478000B9B40464946059AC3B1FFF759FB0246D4
:104488000B46DDE90C01FBF7D9FE80468946DFE7DC
:104498001340A3F580136FEA13594FF0FF386FEA02
:1044A8000959D5E70F9B13EA080FE0E7FFF740FB30
:1044B80002460B46DDE90C01FBF7BEFE0022002395
:1044C80080468946FCF7D8FA0028C1D008E6584645
:1044D800049902F01DF800224FF0804306460F466B
:1044E800FCF7DEFA002870D00B9B002B42D0002688
:1044F800624F624D099B23F000431B0D1B050F9370
:104508000F9A5F4B9A4240F0C380099B4046A3F143
:104518005479494601F026FF02460B463046394693
:10452800FCF742F842464B46FBF788FE0B465149DA
:10453800544A1940914280465DD90D9A4E4B9A4291
:1045480003D10C9B01333FF456AD4FF0FF38DFF831
:10455800289150461A9901F0D5FB5046069901F06A
:10456800D1FB5046049901F0CDFB5946504601F065
:10457800C9FB27E6B8F1000F19D1099BC3F3130350
:10458800E3B90022304639463C4BFCF77FFAC8B9FC
:104598000022304639463C4BFCF706F804460D46E7
:1045A80005F1004316941793DDE91667A2E7B8F101
:1045B800010F03D1099B002B3FF492AD0026002484
:1045C800324F96E70B9C304DEAE72F4B00223046DE
:1045D8003946FBF7E9FF0B9B04460D4633B901F159
:1045E800004310901193DDE9106783E702460B46FC
:1045F800CDE91023F7E703F15479059B002BA8D1E7
:1046080029F000430F9A1B0D1B059A42A1D12046A1
:104618002946FCF711FBFBF799FF02460B4620469B
:104628002946FBF709FE0B9AC9F3130343EA08036B
:10463800134304460D4666D009A3D3E90023FCF7CB
:1046480025FA00287FF4E2AC07A3D3E9002320462B
:104658002946FCF739FA00283FF47BAFD6E400BFBF
:104668009535A094FFFFDF3F35E5AF350000E03F0B
:10467800FFFF0F000000F07FFFFFEF7F0000F03F1B
:104688000000E07FFFFF9F7C0000E03F0000F0BFDC
:10469800059B13B30F9BB3F1D46F1ED826A3D3E9A0
:1046A800002320462946FCF7FBF990B1294620460D
:1046B800FCF752FA012838BF0120FBF7FBFE0B9BE1
:1046C80004460D46D3B901F1004312901393DDE976
:1046D80012670F9A07F1D6639F1ADDE90C0101F002
:1046E80041FE02460B4630463946FBF75DFFDDE9E1
:1046F8000C23FBF7A3FD804689467EE702460B465E
:10470800CDE91223E3E70EA3D3E90023FCF7BEF9B2
:10471800A1E700230A93199B159A1360FFF771BA52
:10472800652A3FF463AB452A3FF460AB0123FFF7EA
:1047380095BB00BFAFF300800000C0FFFFFFDF4163
:104748009535A094FFFFCF3F014BFFF715BA00BF87
:1047580080000020012B2DE9F047804601D0242B52
:1047680006D9FEF721FB162303600020BDE8F08779
:104778000D46354F284615F8014BE65D16F008063C
:10478800F8D12D2C2FD101262C78851C002B57D041
:10479800102B09D1302C07D1287800F0DF005828D9
:1047A80049D110236C780235002706F1004E0EF12E
:1047B800FF3EBEFBF3F9384603FB19EAA4F1300CBF
:1047C800BCF1090F14D86446A34222DD002F1DDB7B
:1047D80081451BD301D1A24518DB012700FB03400B
:1047E80015F8014BEAE72B2C04BF2C78851CCDE784
:1047F800A4F1410CBCF1190F01D8373CE4E7A4F14E
:10480800610CBCF1190F04D8573CDDE74FF0FF37B6
:10481800E6E7002F07DA22237046C8F80030002A9E
:10482800A4D0691E05E006B14042002A9ED0002FA0
:10483800F7D111609AE73024002BB5D10823B3E7EC
:10484800302CA9D00A23AFE751770008FFF782BFC1
:104858002DE9F74F03690C690746A342C0F282802D
:10486800013C00F1140501F1140805EB84030193E0
:1048780058F8243055F8242001339A42B2FBF3F655
:104888004FEA840B08EB840931D34FF0000E404601
:10489800AC46F24650F8042B93B206FB03E3120C25
:1048A8004FEA134E9BB206FB02E2AAEB0303DCF8C5
:1048B80000A04FEA124E1FFA8AFA5344DCF800A00F
:1048C80092B2C2EB1A4202EB23429BB243EA024382
:1048D80081454FEA224A4CF8043BDBD255F80B30AD
:1048E8002BB9019B043B9D421A462FD33C613846A5
:1048F80001F090FC002825DB28464FF0000C01361B
:1049080058F8041BD0F800E08BB2ACEB03031FFA95
:104918008EF213440A0CC2EB1E4202EB23429BB2F6
:1049280043EA0243C1454FEA224C40F8043BE7D230
:1049380055F8242005EB840322B9043B9D421A460E
:104948000AD33C61304603B0BDE8F08F1268043BDF
:10495800002ACBD1013CC6E71268043B002AF0D1FB
:10496800013CEBE70020EEE72DE9F04F16461F4625
:10497800446A99B00546CDE90467DDF8948074B9B6
:10498800102001F049F90246686220B9EA21A84BD3
:10499800A84802F0B3F8C0E901440460C4606B6A37
:1049A800196851B15A68012393404A608B602846C0
:1049B80001F0A8F900226B6A1A603B1EAFBF002302
:1049C800012223F000430593A8BFC8F80030DDF8A2
:1049D8001490994BB8BFC8F8002033EA090319D1DD
:1049E80042F20F73249A1360C9F31303334300F0A0
:1049F8007F85269B53B9914B22E0914B0393083353
:104A0800269A1360039819B0BDE8F08F8B4B039377
:104A18000333F5E7DDE90434CDE90C34DDE90C01B5
:104A280000220023FCF728F8804658B10123249A75
:104A38001360269B002B00F0588582481860431E9F
:104A48000393DFE716AB019317AB00932846DDE924
:104A58000C2301F001FDC9F30A548346002C7FD0D2
:104A6800DDE90C010D9BA4F2FF34C3F3130343F0FB
:104A78007F5141F44011CDF84C800022724BFBF776
:104A8800DBFB65A3D3E90023FBF78EFD64A3D3E921
:104A98000023FBF7D3FB064620460F46FBF71AFD1B
:104AA80061A3D3E90023FBF77FFD02460B4630469E
:104AB8003946FBF7C3FB06460F46FCF725F80022EC
:104AC8008246002330463946FBF7E0FF48B150469E
:104AD800FBF700FD32463B46FBF7CEFF08B90AF16B
:104AE800FF3ABAF1160F58D8DDE90C01574B03EB22
:104AF800CA03D3E90023FBF7C9FF00284FD00023DE
:104B08000AF1FF3A0F93169B1C1B631E099349BFBA
:104B1800C4F1010300230693002354BF06930993AD
:104B2800BAF1000F3DDB099BCDF838A05344099337
:104B380000230A93229B092B00F28C80052BC4BF0B
:104B4800043B2293229BC8BF0024A3F10203D8BFD1
:104B58000124032B00F28A80DFE803F02D4F4D5B20
:104B6800DDE916431C4404F23243202BC3BFC3F1D2
:104B7800400304F2124009FA03F3C3F12003C6BF4D
:104B880026FA00F0184306FA03F0FBF793FC01231A
:104B9800A1F1F871013C13936FE70123B2E70F907D
:104BA800B1E7069BA3EB0A030693CAF100030A9335
:104BB80000230E93BEE700230B93239B002B58DCA6
:104BC8004FF001094B46CDF82090CDF88C9000228B
:104BD800686A4260042202F114069E4241684ED976
:104BE800284601F04FF8039000284CD102464FF4B4
:104BF800D571174BCCE60123DEE700230B93239BEB
:104C08000AEB030909F10103012B0893B8BF01233B
:104C1800DDE70123F2E700BF61436F63A787D23F57
:104C2800B3C8608B288AC63FFB799F501344D33F93
:104C38005E780008757800080000F07F5A78000850
:104C480051780008D17600080000F83FE0790008A4
:104C5800D0780008012400230B9422934FF0FF39E9
:104C680000221223CDF820902392B0E701230B9362
:104C7800F4E7DDF88C904B46CDF82090A7E701319A
:104C880041605200A7E76B6A039A1A60089B0E2BD3
:104C980000F2A880002C00F0A580BAF1000F34DDE6
:104CA8009A4A0AF00F0302EBC3031AF4807FD3E990
:104CB8000034CDE910344FEA2A1416D0DDE90C018E
:104CC800934B0327D3E90823FBF798FDCDE90401AB
:104CD80004F00F048E4E54B9DDE91023DDE9040118
:104CE800FBF78CFDCDE9040129E00227F2E7E10793
:104CF80008D5DDE91001D6E90023FBF755FCCDE91D
:104D08001001013764100836E5E700F0A580DDE9F9
:104D18000C01CAF100047D4B04F00F0203EBC2033F
:104D2800D3E90023FBF740FC02270023CDE9040167
:104D3800774E2411002C40F08480002BD2D10F9B99
:104D4800002B00F08B80DDE90434CDE91034DDE977
:104D5800100100226F4BFBF799FE00287ED0089BBC
:104D6800002B7BD0B9F1000F38DDDDE910010022FE
:104D7800694BFBF719FC4C46CDE904010AF1FF38F1
:104D880001373846FBF7A6FBDDE90423FBF70CFCEB
:104D98000022624BFBF752FAA1F15076CDE91001DF
:104DA8001196002C5DD1DDE9040100225C4BFBF774
:104DB80043FA02460B46CDE904233346109AFBF723
:104DC80083FE002840F09C82DDE90401109A06F178
:104DD8000043FBF75BFE002840F09082DDE90C34CD
:104DE800CDE90434179B002BC0F25281BAF10E0FA3
:104DF80000F34E81454B03EBCA03D3E90034CDE9F8
:104E08000634239B002B80F2DB80089B002B00F3E9
:104E1800D78040F07282DDE906010022404BFBF7A3
:104E2800C3FBDDE90423FBF745FE089C2646002862
:104E380040F048823123039F0AF1010A07F8013B39
:104E480044E2E20705D5D6E90023FBF7ADFB0123D1
:104E58000137641008366DE7022770E7D046089CD2
:104E68008FE70399294B214412910B9903EBC40353
:104E7800DDE9106753E90223002955D000202949AC
:104E8800FBF7BCFC3B463246FBF7D6F9CDE91001EF
:104E9800039FDDE90401FBF737FE0446FBF71AFB25
:104EA80002460B46DDE90401FBF7C6F902460B464C
:104EB8003034CDE90423DDE9102307F8014BFBF773
:104EC800E5FD002874D1DDE9042300201149FBF732
:104ED800B3F9DDE91023FBF7D9FD002840F0B780CE
:104EE800129B9F423FF47AAFDDE9100100220A4B82
:104EF800FBF75AFB0022CDE91001DDE90401064B5E
:104F0800FBF752FBCDE90401C3E700BFE0790008D5
:104F1800B87900080000F03F0000244000001C4061
:104F2800000014400000E03F30463946FBF73CFBE8
:104F3800129BCDE91001039C1493DDE90401FBF7F2
:104F4800E3FD1590FBF7C6FA02460B46DDE90401BE
:104F5800FBF772F9159B0646303304F8013B129BA8
:104F68000F469C424FF0000224D1DDE91001B04BFE
:104F7800FBF764F902460B4630463946FBF7A4FDB9
:104F8800002863D1DDE910230020A949FBF754F973
:104F980002460B4630463946FBF778FD00283FF4B9
:104FA8001DAF149F7B1E149317F8013C302BF8D0CB
:104FB800C2463BE09F4BFBF7F7FACDE90401BCE79B
:104FC800039FDDE90489DDE9062340464946FBF7EE
:104FD80015FCFBF799FD0446FBF77CFADDE906238F
:104FE800FBF7E2FA02460B4640464946FBF724F92E
:104FF80004F1300607F8016B039EDDF820C0BE1BE4
:10500800B44502460B4636D1FBF718F9DDE906230D
:1050180080468946FBF758FD58BBDDE90623404624
:105028004946FBF729FD08B1E10722D4284659462D
:1050380000F068FE00233B70249B0AF10100186011
:10504800269B002B3FF4DEAC1F60DBE427463B4683
:105058001F4613F8012D392A07D1039A9A42F7D12E
:105068003022039908F101080A701A7801321A707F
:105078009EE7D046EBE700226E4BFBF795FA00223D
:10508800002380468946FBF7F7FC00289BD0CDE734
:105098000B9A002A00F0D080229A012A00F3AE80F1
:1050A800139A002A00F0A68003F233430A9C069F55
:1050B800069A01211A440692099A28461A44099226
:1050C80000F020FF0646002F0CDD099B002B09DDB0
:1050D800BB42A8BF3B46069AFF1AD21A0692099A03
:1050E800D31A09930A9BF3B10B9B002B00F0A880FD
:1050F800002C10DD31462246284600F0C1FF5A46F2
:1051080001460646284600F013FF804659462846C1
:1051180000F0F8FDC3460A9B1A1B04D059462846DE
:1051280000F0AEFF83460121284600F0EBFE0E9BFF
:105138000446002B40F386801A460146284600F0B4
:105148009FFF229B0446012B7FDD4FF00008236957
:1051580004EB8303186900F087FEC0F12000099B67
:10516800184410F01F0000F09280C0F12003042BB7
:1051780040F38A80C0F11C00069B07440344069351
:10518800099B03440993069B002B05DD59461A46E3
:10519800284600F0CFFF8346099B002B05DD2146FA
:1051A8001A46284600F0C6FF04460F9B002B70D015
:1051B8002146584601F02EF800286ADA002359469D
:1051C8000A22284600F0C0FD0B9B83460AF1FF3AED
:1051D800002B00F09481314600230A22284600F073
:1051E800B3FDB9F1000F064600F39380229B022B12
:1051F80057DC8EE0169BC3F1360357E7089B5C1E0D
:105208000A9BA342B7BF0A9B1C1BE21A0E9BBEBF98
:105218000A949B180E93089BB8BF0024002BBBBFB1
:10522800069B089A069F9F1AACBF089B00233FE77E
:105238000000E03F000024400A9C069F0B9E42E7C6
:105248000A9A6BE7229B012B19DC049BBBB9059BCF
:10525800C3F313039BB9059B23F000431B0D1B05E8
:1052680083B14FF00108069B01330693099B013374
:1052780009930E9B002B7FF46AAF01206FE74FF074
:105288000008F6E79846F4E73FF47DAF18461C306F
:1052980072E7089B002B36DC229B022B33DDDDF8FE
:1052A8002090B9F1000F0DD121464B460522284622
:1052B80000F04AFD01460446584600F0ABFF0028BE
:1052C8003FF7B8AD239B039F6FEA030A4FF000082E
:1052D8002146284600F016FD002E3FF4A7AEB8F18F
:1052E800000F05D0B04503D04146284600F00AFD1E
:1052F8003146284600F006FD98E600242646E1E7F8
:10530800C246264696E50B9BDDF82090002B00F060
:10531800FD80002F05DD31463A46284600F00AFF99
:105328000646B8F1000F5CD02846716800F0AAFC68
:10533800074628B9024640F2EA217F4BFFF728BB0F
:10534800326906F10C01023292000C3000F08CFC3C
:1053580001223946284600F0EDFEB0460646039B7A
:1053680001330893039B4B440A93049B03F0010306
:105378000993089B2146013B58460493FFF768FAB6
:10538800034641463033069058460B9300F042FFDF
:10539800324681462146284600F058FFC268074633
:1053A8000B9B02BB0146584600F034FF02460B9B9C
:1053B80039462846CDE90B3200F0A4FC229B0C9A12
:1053C800089F43EA0201099B0B430B9B0DD1392B24
:1053D80029D0B9F1000F01DD069B3133049A13700F
:1053E80076E73046B9E70122E2E7B9F1000F06DBBC
:1053F800229941EA0909099959EA010120D1002AAB
:10540800ECDD594601222846089300F093FE214618
:10541800834600F0FFFE0028089B02DCDED1DA0795
:10542800DCD5392BD8D13923049A13703B461F4653
:1054380017F8012C013B392A50D001321A7047E77E
:10544800002A03DD392BEED00133C7E7089A0A9901
:1054580002F8013C8A422AD0594600230A222846EB
:1054680000F072FCB04583464FF000034FF00A028B
:105478004146284607D100F067FC80460646089B4F
:105488000133089375E700F05FFC3146804600233E
:105498000A22284600F058FC0646F0E7B9F1000F4A
:1054A800CCBF4F4601274FF00008039A17445946CE
:1054B80001222846089300F03DFE2146834600F06D
:1054C800A9FE0028B2DC02D1089BDB07AED43B461C
:1054D8001F4613F8012D302AFAD0F9E6039A9A42AA
:1054E800A5D131230AF1010A79E7144BFFF7A8BACD
:1054F800269B002B7FF481AA114BFFF7A1BAB9F1C3
:10550800000F03DC229B022B3FF7CBAE039F214603
:105518005846FFF79DF9039A00F1300307F8013B5D
:10552800BA1A9145BADD594600230A22284600F0E6
:105538000BFC8346EBE700BFD0780008D076000864
:105548005178000803692DE9F043B3EB611F00F1BE
:1055580014044FEA611246DD11F01F0104EB8306C3
:1055680004EB82050CD1294600F11007B14235D36E
:105578009B1A9B00EA1E964238BF0023234415E07D
:10558800A14654F82270C1F12008CF4005F1040E5D
:105598007645F44616D89A1A9200043A0135AE4276
:1055A80038BF0022A318A75007B10433A342A3EBC6
:1055B800040208BF00234FEAA202026108BF436148
:1055C800BDE8F083DCF800C00CFA08FC4CEA0707D9
:1055D80049F8047B5EF8047BCF40D9E751F804CB47
:1055E80047F804CFC2E72346E0E7A0F13003092BD0
:1055F80002D82038C0B27047A0F16103052B01D84A
:105608004738F7E7A0F14103052B01D82738F1E720
:10561800002070472DE9F04F8BB00593B24B0290F4
:105628001B688B46184690460393FAF7F9FD8246A5
:10563800039BDBF80020034413F8013C0693931CFA
:10564800C2F1FF2202F57F02FE32D1181F4613F87D
:10565800010B01913028F8D0FFF7C7FF0446002856
:105668003AD152463846039901F026FA05460028F1
:1056780066D117F80A0007EB0A06FFF7B6FF0028FD
:1056880060D0334618781F46302803F10103F9D05B
:10569800FFF7ABFF0123B0FA80F4354664090193A4
:1056A8003A46164630780132FFF79FFF0028F8D1B6
:1056B80052463046039901F0FFF980B94DB906EB1F
:1056C8000A052A46164630780132FFF78EFF002871
:1056D800F8D1AD1BAD0004E000242546E0E7002D1D
:1056E800F7D1337803F0DF03502B39D173782B2BA4
:1056F8002AD02D2B2CD04FF00009711C0878FFF709
:1057080074FF431EDBB2182B2AD8A0F1100211F83F
:10571800010FFFF76AFF431EDBB2182B1BD9B9F143
:10572800000F00D052421544CBF80010D4B1019BB1
:10573800002B14BF0027062738460BB0BDE8F08FB2
:105748003E4625460124CCE74FF00009B11CD5E7B9
:105758004FF00109FAE70A2303FB0202103AD6E7E1
:105768003146E1E72146F31B013B072B0ADC02988F
:1057780000F088FA044640B90246DE215B4B5C48DB
:1057880001F0BCF901315B10EFE74FF0000B00F1BD
:105798001409CAF10103CDF81090CDF804B00893AC
:1057A800B7423FD3049F019B47F8043BA7EB090787
:1057B800BF102761184600F057FB7F01D8F800603A
:1057C8003F1AB74262DDBF1B3946204600F0F1FEA2
:1057D8008246A8B14FF0010A7B1E591159F82110D1
:1057E80003F01F020AFA02F20A4209D0534505DD06
:1057F8002046B91E00F0DDFE002844D14FF0020A11
:1058080039462046FFF79EFE3D44D8F80830AB42A3
:105818004ADA2146029800F075FA0023149AA32761
:10582800136089E7731E069A079316F8013C9342A2
:1058380019D0BBF1200F07D1049B019A43F8042B20
:10584800049300239B46019316F8010CFFF7CDFE45
:10585800019B00F00F0000FA0BF0034301930BF1DA
:10586800040B079B0DE0089A731E1344BB42E0D358
:10587800184652460399099301F01EF9099B00281E
:10588800D7D11E468CE74FF0030AB9E709DAF71BB0
:1058980021463A46029800F04DFC0446ED1B00F103
:1058A80014094FF0000AB0E7D8F80400A84272DDE6
:1058B800451BAE4235DCD8F80C30022B29D0032B1F
:1058C8002BD0012B1CD1AE421AD1012E12D1D8F8FF
:1058D8000430059A6227136001232361C9F8003058
:1058E800149B1C6028E700BF48790008D07800089E
:1058F800E17800082046711E00F05BFE0028E6D122
:105908002146029800F0FEF90023149A50271360EC
:1059180012E7159B002BF3D1D9E7159B002BD6D1A5
:10592800EEE76F1EBAF1000F32D127B13946204693
:1059380000F03FFE824601217B1159F8233007F021
:105948001F0701FA07F71F424FF0020729462046B2
:1059580018BF4AF0020A761BFFF7F4FDD8F8045086
:10596800BAF1000F48D0D8F80C30022B15D0032B11
:1059780017D0012B09D11AF0020F06D0D9F8000070
:105988004AEA000A1AF0010F0ED147F0100733E077
:105998004FF0010ACFE70127E2E7159BC3F10103A6
:1059A8001593159B002BF0D04FF0000CD4F810B0D5
:1059B80004F114034FEA8B0A03EB8B01184653F8E2
:1059C800042BB2F1FF3F1CD001320260022F04F118
:1059D80014033DD1D8F80020013AB2420AD101227D
:1059E800711153F8213006F01F0602FA06F61E421E
:1059F80018BF174647F02007149B1C60059B1D60C5
:105A08009AE6994243F804CCD8D8A3689B4517DB9B
:105A180061680298013100F035F9814618B90246EB
:105A28008421194BABE6226904F10C010232920081
:105A38000C3000F019F92146029800F063F94C4641
:105A480023695A1C2261012204EB83035A61BDE7D2
:105A580022695A450BDD01212046FFF773FDD8F86E
:105A680008300135AB42FFF6D4AE0127C2E716F085
:105A78001F06FAD0534453F8040C00F0F5F9C6F1A8
:105A88002006B042E7DBF0E7D0780008C2F1080250
:105A9800920070B5C2F120064368046803FA06F55F
:105AA8002C43D340046040F8043F8842F4D370BDCF
:105AB80030B50368013311F8014B14B903600120B4
:105AC80030BD13F8012BA2F14105192D98BF2032E2
